:020000040000FA
:100000000128831603138716051485168613871394
:1000100070309F00831203171E1483120313901471
:10002000101583160313CF30990018151812831278
:100030000313981781309F001D288713871E2128DE
:100040001D2887176420031310148E018F0164206C
:1000500010100E08A0000F08A1002E280C13031387
:1000600083160C1783120B175D209F149F183628D8
:100070001E08A700031383161E088312A6000C1384
:10008000412883160313981683120313200899003E
:100090000C1E4828210899000C1E4C28260899009F
:1000A0000C1E5028270899000C1E54288316031391
:1000B00098128312031387131D280000000000000C
:1000C00000000000000008000030A300D830A400A9
:1000D0000630A500A30B6A280030A300A40B6A28F1
:0A00E000D830A400A50B6A28080020
:0400EA0000340034AA
:02400E00C433B9
:00000001FF
