:020000040000FA
:1000000001288312031705148516861370309F008C
:10001000831203171E1483120313901410158316F2
:100020000313CF3099001815181283120313981771
:1000300081309F001B285A20031310148E018F015A
:100040005A2010100E08A0000F08A10027280C133A
:10005000031383160C1783120B1753209F149F183A
:100060002F281E08A700031383161E088312A6005C
:100070000C133A28831603139816831203132008CF
:1000800099000C1E4128210899000C1E45282608BD
:1000900099000C1E4928270899000C1E4D2883162C
:1000A000031398121B28000000000000000000004D
:1000B000000008000030A300D830A4000630A500DE
:1000C000A30B60280030A300A40B6028D830A40044
:0600D000A50B60280800EA
:0400D60000340034BE
:00000001FF
